:020000040800F2
:1000000038080020450100081D0C0008970B000867
:10001000190C0008010200086D1300080000000020
:10002000000000000000000000000000BD0D0008FE
:100030000502000800000000A50C0008A90E000839
:100040005F0100085F0100085F0100085F01000810
:100050005F0100085F0100085F0100085F01000800
:100060005F0100085F0100085F0100085F010008F0
:100070005F0100085F0100085F0100085F010008E0
:100080005F0100085F0100085F0100085F010008D0
:100090005F0100085F0100085F0100085F010008C0
:1000A0005F0100085F0100085F0100085F010008B0
:1000B0005F0100085F0100085F0100085F010008A0
:1000C0005F0100085F0100085F0100085F01000890
:1000D0005F0100085F0100085F010008A50F00082C
:1000E0005F0100085F0100085F0100085F01000870
:1000F0005F0100085F0100085F0100085F01000860
:100100005F0100085F0100085F0100085F0100084F
:100110005F0100085F0100085F0100085F0100083F
:100120005F0100085F0100085F0100085F0100082F
:10013000DFF80CD000F052F8004800472316000802
:10014000380800200648804706480047FEE7FEE7DB
:10015000FEE7FEE7FEE7FEE7FEE7FEE7FEE7FEE777
:100160002D0F000831010008D2B201E000F8012B88
:10017000491EFBD270470022F6E710B513460A4627
:1001800004461946FFF7F0FF204610BD30B505467E
:100190002A460B4612F8010B13F8014B08B1A04296
:1001A000F8D01CB1002802D06D1CF1E7284630BD04
:1001B00030B50B46014600202022012409E021FA37
:1001C00002F59D4205D303FA02F5491B04FA02F534
:1001D0002844151EA2F10102F1DC30BD064C074D8A
:1001E00006E0E06840F0010394E807009847103407
:1001F000AC42F6D3FFF7A0FF3C1600085C160008DF
:1002000000BFFEE77047000001B50849009808608C
:100210004FF0E020006940F001004FF0E02108615C
:1002200000BF024800680028FBD108BD280000205C
:1002300010B500244FF400710D4800F0AAFC0D48E1
:10024000FFF7E2FF10E04FF4FA7300220AA10BA0BF
:1002500000F018F800B110BD00F0D6F9601CC4B26F
:10026000214607A001F084F80A2CECDB00BFF2E77E
:10027000000C014040420F004F4B00004154000071
:10028000256300002DE9F04106460C4615461F4641
:100290002748B0F800046FF30E002549A1F80004C8
:1002A000324624A1254800F0DEFF1CB915B9012013
:1002B000BDE8F0814FF47A7107FB01F0FFF7A4FF6E
:1002C00000201B49B1F80014C1F30E01184A505424
:1002D00011461BA001F04CF8B4B1ADB12146144851
:1002E000FFF754FF08B1012000E0002040B9294683
:1002F0000F48FFF74BFF08B1012000E0002008B1D4
:100300000120D5E70020D3E744B121460848FFF794
:100310003DFF08B10120CBE70020C9E7294604488A
:10032000FFF734FF08B10120C2E70020C0E700005A
:100330003400002025730D0A000000000048004032
:100340002573000010B586B004460CB1012000E012
:100350000020024606A101A801F01AF84FF4FA7332
:10036000002207A101A8FFF78DFF06B010BD000015
:1003700041542B4349504D55583D25640000000021
:100380004F4B000010B50548FFF73EFF04A105489C
:1003900000F069FF0448FFF737FF10BD40420F002F
:1003A0002B2B2B000048004020A1070008B501219D
:1003B000082000F089FC4FF48070ADF80000102098
:1003C0008DF8030003208DF802006946074800F00D
:1003D00053FB0121082000F077FC4FF40070ADF8CA
:1003E00000006946014800F047FB08BD000C0140D1
:1003F00010B54FF4FA7300220DA10EA0FFF742FFD3
:10040000A0B110A11248FFF7C1FE08B1022010BD33
:1004100010A10F48FFF7BAFE08B10320F7E710A1BB
:100420000B48FFF7B3FE08B10420F0E70020EEE729
:100430004F4B000041542B434950535441545553A2
:10044000000000005354415455533A320D0A000045
:10045000340000205354415455533A330D0A0000E0
:100460005354415455533A340D0A000010B5FFF768
:100470009DFF00F079FA4FF40071044800F089FB09
:100480004FF48071014800F082FB10BD000C014068
:1004900030B59FB004460D462B46224606A101A862
:1004A00000F076FF41F28833002208A101A8FFF78F
:1004B000E9FE1FB030BD000041542B43574A415064
:1004C0003D222573222C2225732200004F4B000071
:1004D000F0B5B9B006460F4614461D46642120A863
:1004E000FFF749FE16B1012E10D107E03B4614A2DA
:1004F00014A120A8009400F04BFF08E03B4615A291
:1005000010A120A8009400F043FF00E000BF00BF4E
:10051000052D06DA20AB2A460FA102A800F038FF0D
:1005200004E020AA11A102A800F032FF4FF47A6380
:1005300012A216A102A8FFF7A5FE39B0F0BD000077
:1005400054435000222573222C222573222C25731C
:10055000000000005544500041542B43495053546F
:100560004152543D25642C257300000041542B4317
:10057000495053544152543D25730000414C52455B
:10058000415920434F4E4E45435400004F4B00000D
:1005900010B5044624B1012C0AD0022C18D10FE06A
:1005A00040F6C4130BA20EA10EA0FFF76BFE10BD08
:1005B00040F6C41307A20AA10DA0FFF763FEF6E7F9
:1005C00040F6C41303A206A10CA0FFF75BFEEEE702
:1005D0000020ECE76E6F206368616E6765000000C5
:1005E0004F4B000041542B43574D4F44453D310084
:1005F00041542B43574D4F44453D320041542B430A
:10060000574D4F44453D330010B54FF40071064837
:1006100000F0BDFA0548FFF7F7FD4FF400710248FE
:1006200000F0B7FA10BD0000000C014020A1070047
:100630002DE9F04186B007460C4615461E464FF0A0
:1006400000083FB1224613A1134800F00CFE4FF002
:1006500001081BE0052E06DAAB1C32460FA101A8EB
:1006600000F096FE04E0AA1C11A101A800F090FE83
:100670006423002212A101A8FFF704FE4FF4FA73CD
:10068000002210A12046FFF7FDFD8046404606B03F
:10069000BDE8F081257300000048004041542B4321
:1006A000495053454E443D25642C2564000000000C
:1006B00041542B43495053454E443D2564000000AE
:1006C0003E20000053454E44204F4B009AB000BFDF
:1006D00000BF00BF00BF642101A8FFF74CFD002749
:1006E0006EA000F045FE4FF48071734800F051FA9F
:1006F000FFF79EFD0020FFF74BFF00BF6FA172A028
:10070000FFF7C6FE0028F9D00020FFF71BFE00BF50
:10071000052371A272A10020FFF7DAFE0028F7D0AE
:1007200000BF00F083F90028FBD071A000F020FE8C
:10073000B2E07548B0F80004C00B002872D0002267
:1007400040F22551714800F0F4FC00206E49B1F8E8
:100750000014C1F30E016C4A50546DA11046FFF70E
:1007600015FD041E49D00127257A312D04D0322DE4
:1007700017D0332D3FD129E0A57A302D02D0312D6D
:100780000CD105E020214C4800F003FA00BF06E040
:100790002021494800F0FBF900BF00E000BF00BF86
:1007A0002AE0A57A302D02D0312D0CD105E00121AF
:1007B000414800F0EEF900BF06E001213E4800F09C
:1007C000E6F900BF00E000BF00BF15E0A57A302DBC
:1007D00002D0312D0CD105E00221374800F0D9F9C3
:1007E00000BF06E00221344800F0D1F900BF00E06C
:1007F00000BF00BF00E000BF00BF4348B0F80004E6
:100800006FF30E004049A1F800040846B0F8000458
:1008100020F40040A1F80004012240F225513B4899
:1008200000F087FC012F0ED10027374A3BA101A819
:1008300000F0AEFD0523002201A90120FFF7F8FE1C
:100840003848FFF7E1FC38480078002824D0FFF74B
:1008500099FD00BFFFF7CCFD0646002EFAD0042E0E
:1008600015D132A000F084FD00BF14A116A0FFF73F
:100870000FFE0028F9D000BF052317A218A1002001
:10088000FFF726FE0028F7D030A000F071FD00BF72
:1008900000F0CCF80028FBD04BE700000D0AD5FD96
:1008A000D4DAC5E4D6C32045535038323636202E2C
:1008B0002E2E2E2E2E0D0A00000C0140766C6E7925
:1008C00036333631313000004C696542616F57690B
:1008D00046693735320000003830383000000000FB
:1008E0003139322E3136382E3139312E3100000077
:1008F0000D0AC5E4D6C3204553503832363620CDD4
:10090000EAB1CF0D0A00000034000020004800408A
:10091000434D445F4C45445F0000000025730D0AC1
:1009200000000000A08601002C0000200D0AD5FD6B
:10093000D4DAD6D8C1ACC8C8B5E3BACDB7FECEF1CB
:10094000C6F7202E2E2E2E2E2E0D0A000D0AD6D8DA
:10095000C1ACC8C8B5E3BACDB7FECEF1C6F7B3C9CE
:10096000B9A60D0A0000000000B585B00121880479
:1009700000F09AF90121082000F0A6F94FF48060F8
:10098000ADF8100018208DF8130003208DF8120028
:1009900004A91A4800F070F84FF40060ADF8100098
:1009A00004208DF8130004A9144800F065F84FF4F2
:1009B000E13000900020ADF80400ADF80600ADF87D
:1009C0000800ADF80C000C20ADF80A0069460C4890
:1009D00000F0D4FB012240F22551094800F0A9FBA8
:1009E000012240F22441064800F0A3FB00F00AF87F
:1009F0000121034800F014FB05B000BD000C0140CC
:100A00000048004008B54FF4A06000F041F92720ED
:100A10008DF8000000208DF801008DF80200012003
:100A20008DF80300684600F0FBF808BD10B54FF4E0
:100A3000FA73002207A108A0FFF724FC08B90020E0
:100A400010BD4FF4FA7308A202A108A0FFF71AFC28
:100A5000F6E700004F4B000041542B4349504D4FE7
:100A600044453D31000000003E00000041542B434E
:100A7000495053454E4400002DE9F04102460025FF
:100A80000026002000230024002791F803C00CF06A
:100A90000F0591F803C00CF0100CBCF1000F03D04F
:100AA00091F802C04CEA050591F800C0BCF1000FB6
:100AB00031D0146800202BE04FF0010C0CFA00F349
:100AC000B1F800C00CEA03069E4220D183004FF02B
:100AD0000F0C0CFA03F7BC4305FA03FC4CEA0404C0
:100AE00091F803C0BCF1280F06D14FF0010C0CFAAD
:100AF00000FCC2F814C00AE091F803C0BCF1480F32
:100B000005D14FF0010C0CFA00FCC2F810C0401CDB
:100B10000828D1D31460B1F800C0BCF1FF0F34DD58
:100B2000546800202EE000F1080C4FF0010808FA8C
:100B30000CF3B1F800C00CEA03069E4221D18300F9
:100B40004FF00F0C0CFA03F7BC4305FA03FC4CEA18
:100B5000040491F803C0BCF1280F05D100F1080C82
:100B600008FA0CF8C2F8148091F803C0BCF1480FE1
:100B700007D100F1080C4FF0010808FA0CF8C2F890
:100B80001080401C0828CED35460BDE8F08141613C
:100B900070470161704700BFFEE7000008B5012102
:100BA000082000F091F82020ADF8000010208DF80A
:100BB000030003208DF8020069460D48FFF75CFF33
:100BC0000121082000F080F80120ADF800006946FE
:100BD0000748FFF751FF0121082000F075F80220B7
:100BE000ADF8000069460248FFF746FF08BD000067
:100BF000000C014010B5FFF7D1FF20210548FFF799
:100C0000C8FF01210348FFF7C4FF02210148FFF795
:100C1000C0FF10BD000C014000BFFEE770470000A0
:100C200070B5002100230F22C47804B3154C24684A
:100C300004F4E064C4F5E064210AC1F10403CA408D
:100C4000447804FA03F184781440214309010E4CDE
:100C50000678A155047804F01F050124AC400578FE
:100C60006D11AD0005F1E025C5F8004109E00478FB
:100C700004F01F050124AC40044D0678761145F8B8
:100C8000264070BD0CED00E000E400E080E100E0F3
:100C900002490143024A1160704700000000FA0552
:100CA0000CED00E07047000029B1064AD26902430A
:100CB000044BDA6104E0034AD2698243014BDA61F2
:100CC000704700000010024029B1064A92690243B1
:100CD000044B9A6104E0034A92698243014B9A6192
:100CE000704700000010024030B5002100220024AF
:100CF00000232D4D6D6805F00C0121B1042905D0AC
:100D0000082923D105E0294D056022E0274D056023
:100D10001FE0254D6D6805F47012234D6D6805F4D4
:100D20008034022505EB92421CB9214D55430560E4
:100D30000BE01D4D6D6805F400351DB11C4D55438C
:100D4000056002E0194D5543056002E0174D05604E
:100D500000BF00BF144D6D6805F0F0010909154D85
:100D60006B5C0568DD4045600F4D6D6805F4E06122
:100D7000090A104D6B5C4568DD4085600A4D6D6861
:100D800005F46051C90A0B4D6B5C4568DD40C560D8
:100D9000054D6D6805F44041890B074D6B5CC568D6
:100DA000B5FBF3F5056130BD0010024000127A007A
:100DB00000093D001400002024000020704710B5F9
:100DC00000F002F810BD00000CB50020019000906A
:100DD0003348006840F480303149086000BF304833
:100DE000006800F4003000900198401C01900098C9
:100DF00018B90198B0F5A06FF1D12948006800F446
:100E0000003010B10120009001E000200090009817
:100E1000012843D12348006840F0100021490860B0
:100E20000846006820F0030008600846006840F0AB
:100E3000020008601A48406819494860084640683E
:100E400048600846406840F4806048600846406852
:100E500020F47C1048600846406840F4E810486080
:100E60000846006840F08070086000BF0C480068C9
:100E700000F000700028F9D00948406820F0030015
:100E8000074948600846406840F00200486000BFDB
:100E90000348406800F00C000828F9D10CBD0000A0
:100EA000001002400020024010B500F06FF810BDA5
:100EB00030B51A4800681A4AB0FBF2F1B1F1807FF0
:100EC00001D301201DE021F07F40401E4FF0E022C1
:100ED000506150170F22002807DA13071D0E114B1F
:100EE00000F00F04241F1D5503E013071C0E0E4BCA
:100EF0001C5400BF00204FF0E022906107201061D9
:100F0000002008B100BFFEE74FF0E020006920F0AC
:100F100001004FF0E021086130BD0000000000201A
:100F200040420F0018ED00E000E400E010B5134867
:100F3000006840F001001149086008464068104907
:100F400008400E494860084600680E4908400B49B1
:100F500008600846006820F4802008600846406861
:100F600020F4FE0048604FF41F008860FFF727FF61
:100F70004FF000600449086010BD000000100240FE
:100F80000000FFF8FFFFF6FE08ED00E004480068EF
:100F900020B103480068401E014908607047000006
:100FA0002800002010B540F225511B4800F097F8AA
:100FB000D8B1194800F04EF9C4B21848B0F800048E
:100FC000C0F30E0040F2FF3188420EDA1349B1F847
:100FD0000014C1F30E00411C104AB2F8002461F362
:100FE0000E020E49A1F800240C5440F224410A4894
:100FF00000F075F801280DD10848B0F8000420F47D
:10100000004000F500400549A1F80004024800F046
:1010100021F9C4B210BD0000004800403400002097
:1010200021B1828942F40052828104E082894DF626
:10103000FF731A408281704700B585B001210420FA
:10104000FFF742FE01218803FFF73EFE4FF40070D8
:10105000ADF8100018208DF8130003208DF8120051
:1010600004A91648FFF708FD4FF48060ADF81000A2
:1010700004208DF8130004A91048FFF7FDFC4FF47D
:10108000E13000900020ADF80400ADF80600ADF8A6
:101090000800ADF80C000C20ADF80A0069460848BD
:1010A00000F06CF8012240F22551054800F041F8AB
:1010B00001210348FFF7B4FF05B000BD000801405F
:1010C0000038014002460020B1F5007F00D100BF8A
:1010D00013880B400BB1012000E00020704770B571
:1010E0000246002400230025002040F66A16B14283
:1010F00000D100BFC1F3421501F01F03012606FA1B
:1011000003F3012D02D19689334006E0022D02D16E
:10111000168A334001E0968A33400C12012606FA03
:1011200004F41688344013B10CB1012000E0002013
:1011300070BDF0B50346002400260025002040F6CF
:101140006A17B94200D100BF1846C1F3421401F03A
:101150001F06012707FA06F5012C01D10C3004E027
:10116000022C01D1103000E014301AB107682F436F
:10117000076002E00768AF430760F0BD2DE9F04764
:1011800086B005460E460024A24600BFA1460027B1
:10119000B08900B100BF2F462C8A4CF6FF70044086
:1011A000F08804432C82AC894EF6F3100440B088DA
:1011B00031890843718908430443AC81AC8A4FF6F6
:1011C000FF400440B0890443AC8201A8FFF78CFDC6
:1011D0001F48874202D1DDF810A001E0DDF80CA025
:1011E000A88900F4004040B10AEBCA0000EB0A10E5
:1011F00031684900B0FBF1F807E00AEBCA0000EBE8
:101200000A1031688900B0FBF1F86420B8FBF0F0F7
:1012100004012009642101FB1089A88900F4004021
:1012200040B1322000EBC900B0FBF1F000F0070044
:10123000044308E0322000EB09106421B0FBF1F018
:1012400000F00F0004432C8106B0BDE8F0870000D9
:101250000038014001468888C0F308007047C1F398
:101260000802828070470FB470B586B006460CA89D
:10127000019073E00B9800785C281CD10B98401CFF
:101280000B9000786E2809D072280FD10D213046BE
:10129000FFF7E5FF0B98401C0B900BE00A2130464E
:1012A000FFF7DDFF0B98401C0B9003E00B98401CF0
:1012B0000B9000BF4BE00B980078252840D10B988D
:1012C000401C0B900078642818D0732833D1019803
:1012D00010C801900BE021783046FFF7C0FF00BF37
:1012E00080213046FFF7EEFE0028F9D0641C2078FC
:1012F0000028F0D10B98401C0B9020E0019820C8EA
:1013000001900A2202A9284600F05AF902AC0BE02B
:1013100021783046FFF7A3FF00BF80213046FFF75A
:10132000D1FE0028F9D0641C20780028F0D10B9859
:10133000401C0B9003E00B98401C0B9000BF06E094
:101340000B9810F8011B0B903046FFF788FF00BF89
:1013500080213046FFF7B6FE0028F9D00B980078C0
:10136000002887D106B070BC5DF814FB00BFFEE713
:101370000FB4054B10B503A9044A029800F02CF8ED
:1013800010BC5DF814FB00009D1500083000002023
:101390000FB4084B10B504A902AA039800F01CF87A
:1013A000044602A9002000F0F3F8204610BC5DF8C6
:1013B00014FB00009115000802E008C8121F08C1C4
:1013C000002AFAD170477047002001E001C1121FC6
:1013D000002AFBD1704700002DE9FF4F8BB09A46E1
:1013E0000F460546002606E025280BD052460D99EB
:1013F00090476D1C761C28780028F5D10FB0304638
:10140000BDE8F08F0024A0460122604900E00443BB
:1014100015F8013F203B02FA03F00842F7D1287883
:101420002E2817D115F8010F44F004042A280ED0F5
:101430006FF02F022878A0F1300109290AD808EBB3
:10144000880102EB410100EB01086D1CF2E757F83F
:10145000048B6D1C287869283ED006DC0028CDD08E
:1014600063280BD0642804D136E0732810D0752887
:101470004BD052460D999047761C85E017F8040B27
:101480008DF8000000208DF80100E946012003E0FE
:1014900057F8049B4FF0FF3061074FF0000401D470
:1014A0000AE0641C44450DDA8442FADB19F80410A2
:1014B0000029F6D106E0641C8442FCDB19F8041014
:1014C0000029F8D1264404E019F8010B52460D9981
:1014D0009047641EF8D257E001CF4FF00A0B002866
:1014E00002DA40422D2102E0210504D52B218DF89E
:1014F0002410012103E0E10705D02021F7E70DF1D9
:10150000200908910CE00021F9E701CF4FF00A0B08
:10151000F9E75946FEF74CFE01F1300209F8012DBA
:101520000028F6D1ADEB090000F1200B600701D4D3
:101530004FF00108D84502DDA8EB0B0000E00020C9
:101540008046002406E009A85246005D0D999047A8
:10155000641C761C08988442F5DB04E03020524677
:101560000D999047761CB8F10001A8F10108F5DC4F
:1015700005E019F8010B52460D999047761CBBF116
:101580000001ABF1010BF4DC6D1C34E7092801000C
:101590000A68531C0B6010707047000070B5044659
:1015A0000D46E1B20548FFF75AFE00BF802103480F
:1015B000FFF788FD0028F9D0204670BD00380140B3
:1015C000F0B503460D461646002729460A2E03D0DD
:1015D000002008702846F0BD33B9302001F8010B17
:1015E000002008702846F6E7002B03DA2D2001F8CA
:1015F000010B5B4242F210720DE093FBF2F404B96E
:1016000037B104F1300001F8010B04FB123301275C
:101610000A2092FBF0F2002AEFDC00200870284636
:10162000D9E7FFF709FDFFF743FCFEF71FFFFFF7C0
:10163000E1FAFFF74BF800BFFEE700005C16000878
:101640000000002034000000B813000890160008C5
:101650003400002004080000C813000800A24A0457
:101660000000000000000000010203040607080952
:101670000000000001020304010203040607080938
:101680000204060800000000000000000000000046
:0400000508000131BD
:00000001FF
